02AALL34      AALL002LOTE PADRAO                                                 BRAALLBDR003BRAALLBDR003108010VISTA          0000000DRN ED    9999-12-31000000000000000000 000R$             SIM                           
02AALR3       AALR002LOTE PADRAO                                                 BRAALRACNOR6BRAALRACNOR6100010VISTA          0000000ON      NM9999-12-31000000000000000000 000R$             SIM                           
02AALR3S      AALR062MERCADO A TERMO                                             BRAALRTSO007BRAALRACNOR6100030TERMO          0000000ON      NM9999-12-31000000000000000000 000R$             SIM                           
02AALR3T      AALR062MERCADO A TERMO                                             BRAALRTNO008BRAALRACNOR6100030TERMO          0000000ON      NM9999-12-31000000000000000000 000R$             SIM                           
02AALRE15     AALR078OPCOES DE COMPRA                                            BRAALR3E0008BRAALRACNOR6100070OPCOES COMPRA  0060000ON      NM2018-05-21000000000150000000A000R$             SIM                           
02AALRQ15     AALR082OPCOES DE VENDA                                             BRAALR3Q0004BRAALRACNOR6100080OPCOES VENDA   0060000ON      NM2018-05-21000000000150000000E000R$             SIM                           
02AAPL34      AAPL002LOTE PADRAO                                                 BRAAPLBDR004BRAAPLBDR004124010VISTA          0000000DRN       9999-12-31000000000000000000 000R$             SIM                           
02ABBV34      ABBV002LOTE PADRAO                                                 BRABBVBDR001BRABBVBDR001109010VISTA          0000000DRN       9999-12-31000000000000000000 000R$             SIM                           
02ABCB4       ABCB002LOTE PADRAO                                                 BRABCBACNPR4BRABCBACNPR4129010VISTA          0000000PN      N29999-12-31000000000000000000 000R$             SIM                           
02ABCB4S      ABCB062MERCADO A TERMO                                             BRABCBTSP005BRABCBACNPR4129030TERMO          0000000PN      N29999-12-31000000000000000000 000R$             SIM                           
02ABCB4T      ABCB062MERCADO A TERMO                                             BRABCBTNP006BRABCBACNPR4129030TERMO          0000000PN      N29999-12-31000000000000000000 000R$             SIM                           
02ABCBF185    ABCB078OPCOES DE COMPRA                                            BRABCB4F0007BRABCBACNPR4129070OPCOES COMPRA  0019000PN      N22018-06-18000000000185000000A000R$             SIM                           
02ABCBF172    ABCB078OPCOES DE COMPRA                                            BRABCB4F0015BRABCBACNPR4129070OPCOES COMPRA  0027000PN      N22018-06-18000000000172500000E000R$             SIM                           
02ABCBF20     ABCB078OPCOES DE COMPRA                                            BRABCB4F0023BRABCBACNPR4129070OPCOES COMPRA  0035000PN      N22018-06-18000000000200000000A000R$             SIM                           
02ABCBR185    ABCB082OPCOES DE VENDA                                             BRABCB4R0003BRABCBACNPR4129080OPCOES VENDA   0019000PN      N22018-06-18000000000185000000E000R$             SIM                           
02ABCBR172    ABCB082OPCOES DE VENDA                                             BRABCB4R0011BRABCBACNPR4129080OPCOES VENDA   0027000PN      N22018-06-18000000000172500000E000R$             SIM                           
02ABCBR20     ABCB082OPCOES DE VENDA                                             BRABCB4R0029BRABCBACNPR4129080OPCOES VENDA   0035000PN      N22018-06-18000000000200000000E000R$             SIM                           
02ABCP11      ABCP012FUNDOS IMOBILIARIOS                                         BRABCPCTF000BRABCPCTF000271010VISTA          0000000CI  ER    9999-12-31000000000000000000 000R$             SIM                           
02ABEVH14     ABEV078OPCOES DE COMPRA                                            BRABEV3H03G6BRABEVACNOR1116070OPCOES COMPRA  0051000ON        2018-08-20000000000135100000A000R$             SIM                           
02ABEVH77     ABEV078OPCOES DE COMPRA                                            BRABEV3H03H4BRABEVACNOR1116070OPCOES COMPRA  0060000ON        2018-08-20000000000167600000E000R$             SIM                           
02ABEVH21     ABEV078OPCOES DE COMPRA                                            BRABEV3H03I2BRABEVACNOR1116070OPCOES COMPRA  0078000ON        2018-08-20000000000205100000A000R$             SIM                           
02ABEVE87     ABEV078OPCOES DE COMPRA                                            BRABEV3E03T6BRABEVACNOR1116070OPCOES COMPRA  1120000ON        2018-05-21000000000167600000E000R$             SIM                           
02ABEVE90     ABEV078OPCOES DE COMPRA                                            BRABEV3E03U4BRABEVACNOR1116070OPCOES COMPRA  1139000ON        2018-05-21000000000202600000E000R$             SIM                           
02ABEVE86     ABEV078OPCOES DE COMPRA                                            BRABEV3E03V2BRABEVACNOR1116070OPCOES COMPRA  1163000ON        2018-05-21000000000157600000E000R$             SIM                           
02ABEVE7      ABEV078OPCOES DE COMPRA                                            BRABEV3E03W0BRABEVACNOR1116070OPCOES COMPRA  1171000ON        2018-05-21000000000170100000A000R$             SIM                           
02ABEVE8      ABEV078OPCOES DE COMPRA                                            BRABEV3E03X8BRABEVACNOR1116070OPCOES COMPRA  1201000ON        2018-05-21000000000177600000E000R$             SIM                           
02ABEVE52     ABEV078OPCOES DE COMPRA                                            BRABEV3E03Y6BRABEVACNOR1116070OPCOES COMPRA  1228000ON        2018-05-21000000000207600000E000R$             SIM                           
02ABEVE46     ABEV078OPCOES DE COMPRA                                            BRABEV3E03Z3BRABEVACNOR1116070OPCOES COMPRA  1236000ON        2018-05-21000000000160100000A000R$             SIM                           
02ABEVE67     ABEV078OPCOES DE COMPRA                                            BRABEV3E0409BRABEVACNOR1116070OPCOES COMPRA  1244000ON        2018-05-21000000000172600000E000R$             SIM                           
02ABEVE1      ABEV078OPCOES DE COMPRA                                            BRABEV3E0417BRABEVACNOR1116070OPCOES COMPRA  1279000ON        2018-05-21000000000180100000A000R$             SIM                           
02ABEVE60     ABEV078OPCOES DE COMPRA                                            BRABEV3E0425BRABEVACNOR1116070OPCOES COMPRA  1287000ON        2018-05-21000000000197600000E000R$             SIM                           
02ABEVE2      ABEV078OPCOES DE COMPRA                                            BRABEV3E0433BRABEVACNOR1116070OPCOES COMPRA  1295000ON        2018-05-21000000000165100000A000R$             SIM                           
02ABEVE3      ABEV078OPCOES DE COMPRA                                            BRABEV3E0441BRABEVACNOR1116070OPCOES COMPRA  1309000ON        2018-05-21000000000185100000A000R$             SIM                           
02ABEVE4      ABEV078OPCOES DE COMPRA                                            BRABEV3E0458BRABEVACNOR1116070OPCOES COMPRA  1317000ON        2018-05-21000000000217600000E000R$             SIM                           
02ABEVE5      ABEV078OPCOES DE COMPRA                                            BRABEV3E0466BRABEVACNOR1116070OPCOES COMPRA  1333000ON        2018-05-21000000000212600000E000R$             SIM                           
02ABEVE25     ABEV078OPCOES DE COMPRA                                            BRABEV3E0474BRABEVACNOR1116070OPCOES COMPRA  1341000ON        2018-05-21000000000205100000A000R$             SIM                           
02ABEVE26     ABEV078OPCOES DE COMPRA                                            BRABEV3E0482BRABEVACNOR1116070OPCOES COMPRA  1350000ON        2018-05-21000000000182600000E000R$             SIM                           
02ABEVG11     ABEV078OPCOES DE COMPRA                                            BRABEV3G04C5BRABEVACNOR1116070OPCOES COMPRA  1368000ON        2018-07-16000000000212600000E000R$             SIM                           
02ABEVF57     ABEV078OPCOES DE COMPRA                                            BRABEV3F04I4BRABEVACNOR1116070OPCOES COMPRA  1627000ON        2018-06-18000000000170100000A000R$             SIM                           
02ABEVF1      ABEV078OPCOES DE COMPRA                                            BRABEV3F04J2BRABEVACNOR1116070OPCOES COMPRA  1635000ON        2018-06-18000000000185100000A000R$             SIM                           
02ABEVF4      ABEV078OPCOES DE COMPRA                                            BRABEV3F04K0BRABEVACNOR1116070OPCOES COMPRA  1643000ON        2018-06-18000000000222600000E000R$             SIM                           
02ABEVF5      ABEV078OPCOES DE COMPRA                                            BRABEV3F04L8BRABEVACNOR1116070OPCOES COMPRA  1651000ON        2018-06-18000000000217600000E000R$             SIM                           
02ABEVL26     ABEV078OPCOES DE COMPRA                                            BRABEV3L05T6BRABEVACNOR1116070OPCOES COMPRA  1660000ON        2018-12-17000000000255100000A000R$             SIM                           
02ABEVG1      ABEV078OPCOES DE COMPRA                                            BRABEV3G04E1BRABEVACNOR1116070OPCOES COMPRA  1759000ON        2018-07-16000000000172600000E000R$             SIM                           
02ABEVG3      ABEV078OPCOES DE COMPRA                                            BRABEV3G04F8BRABEVACNOR1116070OPCOES COMPRA  1767000ON        2018-07-16000000000217600000E000R$             SIM                           
02ABEVG78     ABEV078OPCOES DE COMPRA                                            BRABEV3G04G6BRABEVACNOR1116070OPCOES COMPRA  1775000ON        2018-07-16000000000177600000E000R$             SIM                           
02ABEVG91     ABEV078OPCOES DE COMPRA                                            BRABEV3G04H4BRABEVACNOR1116070OPCOES COMPRA  1783000ON        2018-07-16000000000207600000E000R$             SIM                           
02ABEVG6      ABEV078OPCOES DE COMPRA                                            BRABEV3G04I2BRABEVACNOR1116070OPCOES COMPRA  2070000ON        2018-07-16000000000160100000A000R$             SIM                           
02ABEVG10     ABEV078OPCOES DE COMPRA                                            BRABEV3G04J0BRABEVACNOR1116070OPCOES COMPRA  2089000ON        2018-07-16000000000202600000E000R$             SIM                           
02ABEVG66     ABEV078OPCOES DE COMPRA                                            BRABEV3G04K8BRABEVACNOR1116070OPCOES COMPRA  2135000ON        2018-07-16000000000157600000E000R$             SIM                           
02ABEVG87     ABEV078OPCOES DE COMPRA                                            BRABEV3G04L6BRABEVACNOR1116070OPCOES COMPRA  2143000ON        2018-07-16000000000170100000A000R$             SIM                           
02ABEVG41     ABEV078OPCOES DE COMPRA                                            BRABEV3G04M4BRABEVACNOR1116070OPCOES COMPRA  2178000ON        2018-07-16000000000205100000A000R$             SIM                           
02ABEVT14     ABEV082OPCOES DE VENDA                                             BRABEV3T03G1BRABEVACNOR1116080OPCOES VENDA   0051000ON        2018-08-20000000000135100000E000R$             SIM                           
02ABEVT77     ABEV082OPCOES DE VENDA                                             BRABEV3T03H9BRABEVACNOR1116080OPCOES VENDA   0060000ON        2018-08-20000000000167600000E000R$             SIM                           
02ABEVT21     ABEV082OPCOES DE VENDA                                             BRABEV3T03I7BRABEVACNOR1116080OPCOES VENDA   0078000ON        2018-08-20000000000205100000E000R$             SIM                           
02ABEVQ87     ABEV082OPCOES DE VENDA                                             BRABEV3Q03T0BRABEVACNOR1116080OPCOES VENDA   1120000ON        2018-05-21000000000167600000E000R$             SIM                           
02ABEVQ90     ABEV082OPCOES DE VENDA                                             BRABEV3Q03U8BRABEVACNOR1116080OPCOES VENDA   1139000ON        2018-05-21000000000202600000E000R$             SIM                           
02ABEVQ86     ABEV082OPCOES DE VENDA                                             BRABEV3Q03V6BRABEVACNOR1116080OPCOES VENDA   1163000ON        2018-05-21000000000157600000E000R$             SIM                           
02ABEVQ7      ABEV082OPCOES DE VENDA                                             BRABEV3Q03W4BRABEVACNOR1116080OPCOES VENDA   1171000ON        2018-05-21000000000170100000E000R$             SIM                           
02ABEVQ8      ABEV082OPCOES DE VENDA                                             BRABEV3Q03X2BRABEVACNOR1116080OPCOES VENDA   1201000ON        2018-05-21000000000177600000E000R$             SIM                           
02ABEVQ52     ABEV082OPCOES DE VENDA                                             BRABEV3Q03Y0BRABEVACNOR1116080OPCOES VENDA   1228000ON        2018-05-21000000000207600000E000R$             SIM                           
02ABEVQ46     ABEV082OPCOES DE VENDA                                             BRABEV3Q03Z7BRABEVACNOR1116080OPCOES VENDA   1236000ON        2018-05-21000000000160100000E000R$             SIM                           
02ABEVQ67     ABEV082OPCOES DE VENDA                                             BRABEV3Q0405BRABEVACNOR1116080OPCOES VENDA   1244000ON        2018-05-21000000000172600000E000R$             SIM                           
02ABEVQ1      ABEV082OPCOES DE VENDA                                             BRABEV3Q0413BRABEVACNOR1116080OPCOES VENDA   1279000ON        2018-05-21000000000180100000E000R$             SIM                           
02ABEVQ60     ABEV082OPCOES DE VENDA                                             BRABEV3Q0421BRABEVACNOR1116080OPCOES VENDA   1287000ON        2018-05-21000000000197600000E000R$             SIM                           
02ABEVQ2      ABEV082OPCOES DE VENDA                                             BRABEV3Q0439BRABEVACNOR1116080OPCOES VENDA   1295000ON        2018-05-21000000000165100000E000R$             SIM                           
02ABEVQ3      ABEV082OPCOES DE VENDA                                             BRABEV3Q0447BRABEVACNOR1116080OPCOES VENDA   1309000ON        2018-05-21000000000185100000E000R$             SIM                           
02ABEVQ4      ABEV082OPCOES DE VENDA                                             BRABEV3Q0454BRABEVACNOR1116080OPCOES VENDA   1317000ON        2018-05-21000000000217600000E000R$             SIM                           
02ABEVQ5      ABEV082OPCOES DE VENDA                                             BRABEV3Q0462BRABEVACNOR1116080OPCOES VENDA   1333000ON        2018-05-21000000000212600000E000R$             SIM                           
02ABEVQ25     ABEV082OPCOES DE VENDA                                             BRABEV3Q0470BRABEVACNOR1116080OPCOES VENDA   1341000ON        2018-05-21000000000205100000E000R$             SIM                           
02ABEVQ26     ABEV082OPCOES DE VENDA                                             BRABEV3Q0488BRABEVACNOR1116080OPCOES VENDA   1350000ON        2018-05-21000000000182600000E000R$             SIM                           
02ABEVS11     ABEV082OPCOES DE VENDA                                             BRABEV3S04C0BRABEVACNOR1116080OPCOES VENDA   1368000ON        2018-07-16000000000212600000E000R$             SIM                           
02ABEVR57     ABEV082OPCOES DE VENDA                                             BRABEV3R04I9BRABEVACNOR1116080OPCOES VENDA   1627000ON        2018-06-18000000000170100000E000R$             SIM                           
02ABEVR1      ABEV082OPCOES DE VENDA                                             BRABEV3R04J7BRABEVACNOR1116080OPCOES VENDA   1635000ON        2018-06-18000000000185100000E000R$             SIM                           
02ABEVR4      ABEV082OPCOES DE VENDA                                             BRABEV3R04K5BRABEVACNOR1116080OPCOES VENDA   1643000ON        2018-06-18000000000222600000E000R$             SIM                           
02ABEVR5      ABEV082OPCOES DE VENDA                                             BRABEV3R04L3BRABEVACNOR1116080OPCOES VENDA   1651000ON        2018-06-18000000000217600000E000R$             SIM                           
02ABEVX26     ABEV082OPCOES DE VENDA                                             BRABEV3X05T1BRABEVACNOR1116080OPCOES VENDA   1660000ON        2018-12-17000000000255100000E000R$             SIM                           
02ABEVS1      ABEV082OPCOES DE VENDA                                             BRABEV3S04E6BRABEVACNOR1116080OPCOES VENDA   1759000ON        2018-07-16000000000172600000E000R$             SIM                           
02ABEVS3      ABEV082OPCOES DE VENDA                                             BRABEV3S04F3BRABEVACNOR1116080OPCOES VENDA   1767000ON        2018-07-16000000000217600000E000R$             SIM                           
02ABEVS78     ABEV082OPCOES DE VENDA                                             BRABEV3S04G1BRABEVACNOR1116080OPCOES VENDA   1775000ON        2018-07-16000000000177600000E000R$             SIM                           
02ABEVS91     ABEV082OPCOES DE VENDA                                             BRABEV3S04H9BRABEVACNOR1116080OPCOES VENDA   1783000ON        2018-07-16000000000207600000E000R$             SIM                           
02ABEVS6      ABEV082OPCOES DE VENDA                                             BRABEV3S04I7BRABEVACNOR1116080OPCOES VENDA   2070000ON        2018-07-16000000000160100000E000R$             SIM                           
02ABEVS10     ABEV082OPCOES DE VENDA                                             BRABEV3S04J5BRABEVACNOR1116080OPCOES VENDA   2089000ON        2018-07-16000000000202600000E000R$             SIM                           
02ABEVS66     ABEV082OPCOES DE VENDA                                             BRABEV3S04K3BRABEVACNOR1116080OPCOES VENDA   2135000ON        2018-07-16000000000157600000E000R$             SIM                           
02ABEVS87     ABEV082OPCOES DE VENDA                                             BRABEV3S04L1BRABEVACNOR1116080OPCOES VENDA   2143000ON        2018-07-16000000000170100000E000R$             SIM                           
02ABEVS41     ABEV082OPCOES DE VENDA                                             BRABEV3S04M9BRABEVACNOR1116080OPCOES VENDA   2178000ON        2018-07-16000000000205100000E000R$             SIM                           
02ABEVL99     ABEV078OPCOES DE COMPRA                                            BRABEV3L05Y6BRABEVACNOR1117070OPCOES COMPRA  0248000ON        2018-12-17000000000247600000E000R$             SIM                           
02ABEVF18     ABEV078OPCOES DE COMPRA                                            BRABEV3F04M6BRABEVACNOR1117070OPCOES COMPRA  0256000ON        2018-06-18000000000180100000A000R$             SIM                           
02ABEVF70     ABEV078OPCOES DE COMPRA                                            BRABEV3F04N4BRABEVACNOR1117070OPCOES COMPRA  0264000ON        2018-06-18000000000197600000E000R$             SIM                           
02ABEVG76     ABEV078OPCOES DE COMPRA                                            BRABEV3G04N2BRABEVACNOR1117070OPCOES COMPRA  0272000ON        2018-07-16000000000162600000E000R$             SIM                           
02ABEVH86     ABEV078OPCOES DE COMPRA                                            BRABEV3H04F6BRABEVACNOR1117070OPCOES COMPRA  0280000ON        2018-08-20000000000162600000E000R$             SIM                           
02ABEVH78     ABEV078OPCOES DE COMPRA                                            BRABEV3H04G4BRABEVACNOR1117070OPCOES COMPRA  0299000ON        2018-08-20000000000177600000E000R$             SIM                           
02ABEVH91     ABEV078OPCOES DE COMPRA                                            BRABEV3H04H2BRABEVACNOR1117070OPCOES COMPRA  0302000ON        2018-08-20000000000207600000E000R$             SIM                           
02ABEVF78     ABEV078OPCOES DE COMPRA                                            BRABEV3F04O2BRABEVACNOR1117070OPCOES COMPRA  0310000ON        2018-06-18000000000182600000E000R$             SIM                           
02ABEVF20     ABEV078OPCOES DE COMPRA                                            BRABEV3F04P9BRABEVACNOR1117070OPCOES COMPRA  0329000ON        2018-06-18000000000200100000A000R$             SIM                           
02ABEVG67     ABEV078OPCOES DE COMPRA                                            BRABEV3G04O0BRABEVACNOR1117070OPCOES COMPRA  0388000ON        2018-07-16000000000167600000E000R$             SIM                           
02ABEVG88     ABEV078OPCOES DE COMPRA                                            BRABEV3G04P7BRABEVACNOR1117070OPCOES COMPRA  0396000ON        2018-07-16000000000182600000E000R$             SIM                           
02ABEVG19     ABEV078OPCOES DE COMPRA                                            BRABEV3G04Q5BRABEVACNOR1117070OPCOES COMPRA  0400000ON        2018-07-16000000000190100000A000R$             SIM                           
02ABEVI5      ABEV078OPCOES DE COMPRA                                            BRABEV3I04H0BRABEVACNOR1117070OPCOES COMPRA  0418000ON        2018-09-17000000000176700000A000R$             SIM                           
02ABEVI7      ABEV078OPCOES DE COMPRA                                            BRABEV3I04I8BRABEVACNOR1117070OPCOES COMPRA  0426000ON        2018-09-17000000000214200000E000R$             SIM                           
02ABEVG69     ABEV078OPCOES DE COMPRA                                            BRABEV3G04R3BRABEVACNOR1117070OPCOES COMPRA  0450000ON        2018-07-16000000000187600000E000R$             SIM                           
02ABEVH81     ABEV078OPCOES DE COMPRA                                            BRABEV3H04I0BRABEVACNOR1117070OPCOES COMPRA  0469000ON        2018-08-20000000000212600000E000R$             SIM                           
02ABEVH7      ABEV078OPCOES DE COMPRA                                            BRABEV3H04J8BRABEVACNOR1117070OPCOES COMPRA  0477000ON        2018-08-20000000000172600000E000R$             SIM                           
02ABEVH62     ABEV078OPCOES DE COMPRA                                            BRABEV3H04K6BRABEVACNOR1117070OPCOES COMPRA  0485000ON        2018-08-20000000000217600000E000R$             SIM                           
02ABEVH1      ABEV078OPCOES DE COMPRA                                            BRABEV3H04L4BRABEVACNOR1117070OPCOES COMPRA  0507000ON        2018-08-20000000000165100000A000R$             SIM                           
02ABEVH2      ABEV078OPCOES DE COMPRA                                            BRABEV3H04M2BRABEVACNOR1117070OPCOES COMPRA  0515000ON        2018-08-20000000000185100000A000R$             SIM                           
02ABEVH4      ABEV078OPCOES DE COMPRA                                            BRABEV3H04N0BRABEVACNOR1117070OPCOES COMPRA  0523000ON        2018-08-20000000000222600000E000R$             SIM                           
02ABEVI68     ABEV078OPCOES DE COMPRA                                            BRABEV3I04N8BRABEVACNOR1117070OPCOES COMPRA  0698000ON        2018-09-17000000000179200000E000R$             SIM                           
02ABEVI92     ABEV078OPCOES DE COMPRA                                            BRABEV3I04O6BRABEVACNOR1117070OPCOES COMPRA  0701000ON        2018-09-17000000000219200000E000R$             SIM                           
02ABEVI87     ABEV078OPCOES DE COMPRA                                            BRABEV3I04P3BRABEVACNOR1117070OPCOES COMPRA  0710000ON        2018-09-17000000000174200000E000R$             SIM                           
02ABEVI89     ABEV078OPCOES DE COMPRA                                            BRABEV3I04Q1BRABEVACNOR1117070OPCOES COMPRA  0728000ON        2018-09-17000000000194200000E000R$             SIM                           
02ABEVI47     ABEV078OPCOES DE COMPRA                                            BRABEV3I04R9BRABEVACNOR1117070OPCOES COMPRA  0752000ON        2018-09-17000000000171700000A000R$             SIM                           
02ABEVI79     ABEV078OPCOES DE COMPRA                                            BRABEV3I04S7BRABEVACNOR1117070OPCOES COMPRA  0760000ON        2018-09-17000000000189200000E000R$             SIM                           
02ABEVH47     ABEV078OPCOES DE COMPRA                                            BRABEV3H04O8BRABEVACNOR1117070OPCOES COMPRA  0779000ON        2018-08-20000000000175100000A000R$             SIM                           
02ABEVH49     ABEV078OPCOES DE COMPRA                                            BRABEV3H04P5BRABEVACNOR1117070OPCOES COMPRA  0787000ON        2018-08-20000000000195100000A000R$             SIM                           
02ABEVH18     ABEV078OPCOES DE COMPRA                                            BRABEV3H04Q3BRABEVACNOR1117070OPCOES COMPRA  0825000ON        2018-08-20000000000180100000A000R$             SIM                           
02ABEVH68     ABEV078OPCOES DE COMPRA                                            BRABEV3H04R1BRABEVACNOR1117070OPCOES COMPRA  0833000ON        2018-08-20000000000182600000E000R$             SIM                           
02ABEVH79     ABEV078OPCOES DE COMPRA                                            BRABEV3H04S9BRABEVACNOR1117070OPCOES COMPRA  0841000ON        2018-08-20000000000192600000E000R$             SIM                           
02ABEVH80     ABEV078OPCOES DE COMPRA                                            BRABEV3H04T7BRABEVACNOR1117070OPCOES COMPRA  0850000ON        2018-08-20000000000197600000E000R$             SIM                           
02ABEVH83     ABEV078OPCOES DE COMPRA                                            BRABEV3H04U5BRABEVACNOR1117070OPCOES COMPRA  0868000ON        2018-08-20000000000227600000E000R$             SIM                           
02ABEVK87     ABEV078OPCOES DE COMPRA                                            BRABEV3K04P9BRABEVACNOR1117070OPCOES COMPRA  0981000ON        2018-11-19000000000169200000E000R$             SIM                           
02ABEVK18     ABEV078OPCOES DE COMPRA                                            BRABEV3K04Q7BRABEVACNOR1117070OPCOES COMPRA  0990000ON        2018-11-19000000000176700000A000R$             SIM                           
02ABEVK90     ABEV078OPCOES DE COMPRA                                            BRABEV3K04R5BRABEVACNOR1117070OPCOES COMPRA  1007000ON        2018-11-19000000000204200000E000R$             SIM                           
02ABEVK91     ABEV078OPCOES DE COMPRA                                            BRABEV3K04S3BRABEVACNOR1117070OPCOES COMPRA  1015000ON        2018-11-19000000000214200000E000R$             SIM                           
02ABEVE49     ABEV078OPCOES DE COMPRA                                            BRABEV3E0490BRABEVACNOR1117070OPCOES COMPRA  1066000ON        2018-05-21000000000195100000A000R$             SIM                           
02ABEVE21     ABEV078OPCOES DE COMPRA                                            BRABEV3E04A4BRABEVACNOR1117070OPCOES COMPRA  1074000ON        2018-05-21000000000210100000A000R$             SIM                           
02ABEVE22     ABEV078OPCOES DE COMPRA                                            BRABEV3E04B2BRABEVACNOR1117070OPCOES COMPRA  1082000ON        2018-05-21000000000225100000A000R$             SIM                           
02ABEVL67     ABEV078OPCOES DE COMPRA                                            BRABEV3L0673BRABEVACNOR1117070OPCOES COMPRA  1090000ON        2018-12-17000000000267600000E000R$             SIM                           
02ABEVL81     ABEV078OPCOES DE COMPRA                                            BRABEV3L0681BRABEVACNOR1117070OPCOES COMPRA  1104000ON        2018-12-17000000000215100000A000R$             SIM                           
02ABEVI81     ABEV078OPCOES DE COMPRA                                            BRABEV3I04T5BRABEVACNOR1117070OPCOES COMPRA  1287000ON        2018-09-17000000000209200000E000R$             SIM                           
02ABEVI83     ABEV078OPCOES DE COMPRA                                            BRABEV3I04U3BRABEVACNOR1117070OPCOES COMPRA  1295000ON        2018-09-17000000000234200000E000R$             SIM                           
02ABEVL58     ABEV078OPCOES DE COMPRA                                            BRABEV3L06A4BRABEVACNOR1117070OPCOES COMPRA  1325000ON        2018-12-17000000000177600000E000R$             SIM                           
02ABEVL89     ABEV078OPCOES DE COMPRA                                            BRABEV3L06B2BRABEVACNOR1117070OPCOES COMPRA  1333000ON        2018-12-17000000000187600000E000R$             SIM                           
02ABEVL62     ABEV078OPCOES DE COMPRA                                            BRABEV3L06C0BRABEVACNOR1117070OPCOES COMPRA  1341000ON        2018-12-17000000000217600000E000R$             SIM                           
02ABEVL41     ABEV078OPCOES DE COMPRA                                            BRABEV3L06D8BRABEVACNOR1117070OPCOES COMPRA  1376000ON        2018-12-17000000000210100000A000R$             SIM                           
02ABEVL73     ABEV078OPCOES DE COMPRA                                            BRABEV3L06E6BRABEVACNOR1117070OPCOES COMPRA  1384000ON        2018-12-17000000000232600000E000R$             SIM                           
02ABEVL48     ABEV078OPCOES DE COMPRA                                            BRABEV3L06F3BRABEVACNOR1117070OPCOES COMPRA  1392000ON        2018-12-17000000000182600000E000R$             SIM                           
02ABEVL80     ABEV078OPCOES DE COMPRA                                            BRABEV3L06G1BRABEVACNOR1117070OPCOES COMPRA  1406000ON        2018-12-17000000000205100000A000R$             SIM                           
02ABEVL93     ABEV078OPCOES DE COMPRA                                            BRABEV3L06H9BRABEVACNOR1117070OPCOES COMPRA  1414000ON        2018-12-17000000000227600000E000R$             SIM                           
02ABEVK78     ABEV078OPCOES DE COMPRA                                            BRABEV3K04W5BRABEVACNOR1117070OPCOES COMPRA  1422000ON        2018-11-19000000000184200000E000R$             SIM                           
02ABEVK93     ABEV078OPCOES DE COMPRA                                            BRABEV3K04X3BRABEVACNOR1117070OPCOES COMPRA  1430000ON        2018-11-19000000000234200000E000R$             SIM                           
02ABEVK40     ABEV078OPCOES DE COMPRA                                            BRABEV3K04Y1BRABEVACNOR1117070OPCOES COMPRA  1449000ON        2018-11-19000000000201700000A000R$             SIM                           
02ABEVK43     ABEV078OPCOES DE COMPRA                                            BRABEV3K04Z8BRABEVACNOR1117070OPCOES COMPRA  1457000ON        2018-11-19000000000229200000E000R$             SIM                           
02ABEVK89     ABEV078OPCOES DE COMPRA                                            BRABEV3K0500BRABEVACNOR1117070OPCOES COMPRA  1465000ON        2018-11-19000000000186700000A000R$             SIM                           
02ABEVL97     ABEV078OPCOES DE COMPRA                                            BRABEV3L06I7BRABEVACNOR1117070OPCOES COMPRA  1503000ON        2018-12-17000000000172600000E000R$             SIM                           
02ABEVL18     ABEV078OPCOES DE COMPRA                                            BRABEV3L06J5BRABEVACNOR1117070OPCOES COMPRA  1511000ON        2018-12-17000000000180100000A000R$             SIM                           
02ABEVL91     ABEV078OPCOES DE COMPRA                                            BRABEV3L06K3BRABEVACNOR1117070OPCOES COMPRA  1520000ON        2018-12-17000000000212600000E000R$             SIM                           
02ABEVL195    ABEV078OPCOES DE COMPRA                                            BRABEV3L06M9BRABEVACNOR1117070OPCOES COMPRA  1732000ON        2018-12-17000000000192600000E000R$             SIM                           
02ABEVK21     ABEV078OPCOES DE COMPRA                                            BRABEV3K0518BRABEVACNOR1117070OPCOES COMPRA  8001000ON        2018-11-19000000000206700000A000R$             SIM                           
02ABEVX99     ABEV082OPCOES DE VENDA                                             BRABEV3X05Y1BRABEVACNOR1117080OPCOES VENDA   0248000ON        2018-12-17000000000247600000E000R$             SIM                           
02ABEVR18     ABEV082OPCOES DE VENDA                                             BRABEV3R04M1BRABEVACNOR1117080OPCOES VENDA   0256000ON        2018-06-18000000000180100000E000R$             SIM                           
02ABEVR70     ABEV082OPCOES DE VENDA                                             BRABEV3R04N9BRABEVACNOR1117080OPCOES VENDA   0264000ON        2018-06-18000000000197600000E000R$             SIM                           
02ABEVS76     ABEV082OPCOES DE VENDA                                             BRABEV3S04N7BRABEVACNOR1117080OPCOES VENDA   0272000ON        2018-07-16000000000162600000E000R$             SIM                           
02ABEVT86     ABEV082OPCOES DE VENDA                                             BRABEV3T04F1BRABEVACNOR1117080OPCOES VENDA   0280000ON        2018-08-20000000000162600000E000R$             SIM                           
02ABEVT78     ABEV082OPCOES DE VENDA                                             BRABEV3T04G9BRABEVACNOR1117080OPCOES VENDA   0299000ON        2018-08-20000000000177600000E000R$             SIM                           
02ABEVT91     ABEV082OPCOES DE VENDA                                             BRABEV3T04H7BRABEVACNOR1117080OPCOES VENDA   0302000ON        2018-08-20000000000207600000E000R$             SIM                           
02ABEVR78     ABEV082OPCOES DE VENDA                                             BRABEV3R04O7BRABEVACNOR1117080OPCOES VENDA   0310000ON        2018-06-18000000000182600000E000R$             SIM                           
02ABEVR20     ABEV082OPCOES DE VENDA                                             BRABEV3R04P4BRABEVACNOR1117080OPCOES VENDA   0329000ON        2018-06-18000000000200100000E000R$             SIM                           
02ABEVS67     ABEV082OPCOES DE VENDA                                             BRABEV3S04O5BRABEVACNOR1117080OPCOES VENDA   0388000ON        2018-07-16000000000167600000E000R$             SIM                           
02ABEVS88     ABEV082OPCOES DE VENDA                                             BRABEV3S04P2BRABEVACNOR1117080OPCOES VENDA   0396000ON        2018-07-16000000000182600000E000R$             SIM                           
02ABEVS19     ABEV082OPCOES DE VENDA                                             BRABEV3S04Q0BRABEVACNOR1117080OPCOES VENDA   0400000ON        2018-07-16000000000190100000E000R$             SIM                           
02ABEVU5      ABEV082OPCOES DE VENDA                                             BRABEV3U04H5BRABEVACNOR1117080OPCOES VENDA   0418000ON        2018-09-17000000000176700000E000R$             SIM                           
02ABEVU7      ABEV082OPCOES DE VENDA                                             BRABEV3U04I3BRABEVACNOR1117080OPCOES VENDA   0426000ON        2018-09-17000000000214200000E000R$             SIM                           
02ABEVS69     ABEV082OPCOES DE VENDA                                             BRABEV3S04R8BRABEVACNOR1117080OPCOES VENDA   0450000ON        2018-07-16000000000187600000E000R$             SIM                           
02ABEVT81     ABEV082OPCOES DE VENDA                                             BRABEV3T04I5BRABEVACNOR1117080OPCOES VENDA   0469000ON        2018-08-20000000000212600000E000R$             SIM                           
02ABEVT7      ABEV082OPCOES DE VENDA                                             BRABEV3T04J3BRABEVACNOR1117080OPCOES VENDA   0477000ON        2018-08-20000000000172600000E000R$             SIM                           
02ABEVT62     ABEV082OPCOES DE VENDA                                             BRABEV3T04K1BRABEVACNOR1117080OPCOES VENDA   0485000ON        2018-08-20000000000217600000E000R$             SIM                           
02ABEVT1      ABEV082OPCOES DE VENDA                                             BRABEV3T04L9BRABEVACNOR1117080OPCOES VENDA   0507000ON        2018-08-20000000000165100000E000R$             SIM                           
02ABEVT2      ABEV082OPCOES DE VENDA                                             BRABEV3T04M7BRABEVACNOR1117080OPCOES VENDA   0515000ON        2018-08-20000000000185100000E000R$             SIM                           
02ABEVT4      ABEV082OPCOES DE VENDA                                             BRABEV3T04N5BRABEVACNOR1117080OPCOES VENDA   0523000ON        2018-08-20000000000222600000E000R$             SIM                           
02ABEVU68     ABEV082OPCOES DE VENDA                                             BRABEV3U04N3BRABEVACNOR1117080OPCOES VENDA   0698000ON        2018-09-17000000000179200000E000R$             SIM                           
02ABEVU92     ABEV082OPCOES DE VENDA                                             BRABEV3U04O1BRABEVACNOR1117080OPCOES VENDA   0701000ON        2018-09-17000000000219200000E000R$             SIM                           
02ABEVU87     ABEV082OPCOES DE VENDA                                             BRABEV3U04P8BRABEVACNOR1117080OPCOES VENDA   0710000ON        2018-09-17000000000174200000E000R$             SIM                           
02ABEVU89     ABEV082OPCOES DE VENDA                                             BRABEV3U04Q6BRABEVACNOR1117080OPCOES VENDA   0728000ON        2018-09-17000000000194200000E000R$             SIM                           
02ABEVU47     ABEV082OPCOES DE VENDA                                             BRABEV3U04R4BRABEVACNOR1117080OPCOES VENDA   0752000ON        2018-09-17000000000171700000E000R$             SIM                           
02ABEVU79     ABEV082OPCOES DE VENDA                                             BRABEV3U04S2BRABEVACNOR1117080OPCOES VENDA   0760000ON        2018-09-17000000000189200000E000R$             SIM                           
02ABEVT47     ABEV082OPCOES DE VENDA                                             BRABEV3T04O3BRABEVACNOR1117080OPCOES VENDA   0779000ON        2018-08-20000000000175100000E000R$             SIM                           
02ABEVT49     ABEV082OPCOES DE VENDA                                             BRABEV3T04P0BRABEVACNOR1117080OPCOES VENDA   0787000ON        2018-08-20000000000195100000E000R$             SIM                           
02ABEVT18     ABEV082OPCOES DE VENDA                                             BRABEV3T04Q8BRABEVACNOR1117080OPCOES VENDA   0825000ON        2018-08-20000000000180100000E000R$             SIM                           
02ABEVT68     ABEV082OPCOES DE VENDA                                             BRABEV3T04R6BRABEVACNOR1117080OPCOES VENDA   0833000ON        2018-08-20000000000182600000E000R$             SIM                           
02ABEVT79     ABEV082OPCOES DE VENDA                                             BRABEV3T04S4BRABEVACNOR1117080OPCOES VENDA   0841000ON        2018-08-20000000000192600000E000R$             SIM                           
02ABEVT80     ABEV082OPCOES DE VENDA                                             BRABEV3T04T2BRABEVACNOR1117080OPCOES VENDA   0850000ON        2018-08-20000000000197600000E000R$             SIM                           
02ABEVT83     ABEV082OPCOES DE VENDA                                             BRABEV3T04U0BRABEVACNOR1117080OPCOES VENDA   0868000ON        2018-08-20000000000227600000E000R$             SIM                           
02ABEVW87     ABEV082OPCOES DE VENDA                                             BRABEV3W04P4BRABEVACNOR1117080OPCOES VENDA   0981000ON        2018-11-19000000000169200000E000R$             SIM                           
02ABEVW18     ABEV082OPCOES DE VENDA                                             BRABEV3W04Q2BRABEVACNOR1117080OPCOES VENDA   0990000ON        2018-11-19000000000176700000E000R$             SIM                           
02ABEVW90     ABEV082OPCOES DE VENDA                                             BRABEV3W04R0BRABEVACNOR1117080OPCOES VENDA   1007000ON        2018-11-19000000000204200000E000R$             SIM                           
02ABEVW91     ABEV082OPCOES DE VENDA                                             BRABEV3W04S8BRABEVACNOR1117080OPCOES VENDA   1015000ON        2018-11-19000000000214200000E000R$             SIM                           
02ABEVQ49     ABEV082OPCOES DE VENDA                                             BRABEV3Q0496BRABEVACNOR1117080OPCOES VENDA   1066000ON        2018-05-21000000000195100000E000R$             SIM                           
02ABEVQ21     ABEV082OPCOES DE VENDA                                             BRABEV3Q04A8BRABEVACNOR1117080OPCOES VENDA   1074000ON        2018-05-21000000000210100000E000R$             SIM                           
02ABEVQ22     ABEV082OPCOES DE VENDA                                             BRABEV3Q04B6BRABEVACNOR1117080OPCOES VENDA   1082000ON        2018-05-21000000000225100000E000R$             SIM                           
02ABEVX67     ABEV082OPCOES DE VENDA                                             BRABEV3X0679BRABEVACNOR1117080OPCOES VENDA   1090000ON        2018-12-17000000000267600000E000R$             SIM                           
02ABEVX81     ABEV082OPCOES DE VENDA                                             BRABEV3X0687BRABEVACNOR1117080OPCOES VENDA   1104000ON        2018-12-17000000000215100000E000R$             SIM                           
02ABEVU81     ABEV082OPCOES DE VENDA                                             BRABEV3U04T0BRABEVACNOR1117080OPCOES VENDA   1287000ON        2018-09-17000000000209200000E000R$             SIM                           
02ABEVU83     ABEV082OPCOES DE VENDA                                             BRABEV3U04U8BRABEVACNOR1117080OPCOES VENDA   1295000ON        2018-09-17000000000234200000E000R$             SIM                           
02ABEVX58     ABEV082OPCOES DE VENDA                                             BRABEV3X06A9BRABEVACNOR1117080OPCOES VENDA   1325000ON        2018-12-17000000000177600000E000R$             SIM                           
02ABEVX89     ABEV082OPCOES DE VENDA                                             BRABEV3X06B7BRABEVACNOR1117080OPCOES VENDA   1333000ON        2018-12-17000000000187600000E000R$             SIM                           
02ABEVX62     ABEV082OPCOES DE VENDA                                             BRABEV3X06C5BRABEVACNOR1117080OPCOES VENDA   1341000ON        2018-12-17000000000217600000E000R$             SIM                           
02ABEVX41     ABEV082OPCOES DE VENDA                                             BRABEV3X06D3BRABEVACNOR1117080OPCOES VENDA   1376000ON        2018-12-17000000000210100000E000R$             SIM                           
02ABEVX73     ABEV082OPCOES DE VENDA                                             BRABEV3X06E1BRABEVACNOR1117080OPCOES VENDA   1384000ON        2018-12-17000000000232600000E000R$             SIM                           
02ABEVX48     ABEV082OPCOES DE VENDA                                             BRABEV3X06F8BRABEVACNOR1117080OPCOES VENDA   1392000ON        2018-12-17000000000182600000E000R$             SIM                           
02ABEVX80     ABEV082OPCOES DE VENDA                                             BRABEV3X06G6BRABEVACNOR1117080OPCOES VENDA   1406000ON        2018-12-17000000000205100000E000R$             SIM                           
02ABEVX93     ABEV082OPCOES DE VENDA                                             BRABEV3X06H4BRABEVACNOR1117080OPCOES VENDA   1414000ON        2018-12-17000000000227600000E000R$             SIM                           
02ABEVW78     ABEV082OPCOES DE VENDA                                             BRABEV3W04W0BRABEVACNOR1117080OPCOES VENDA   1422000ON        2018-11-19000000000184200000E000R$             SIM                           
02ABEVW93     ABEV082OPCOES DE VENDA                                             BRABEV3W04X8BRABEVACNOR1117080OPCOES VENDA   1430000ON        2018-11-19000000000234200000E000R$             SIM                           
02ABEVW40     ABEV082OPCOES DE VENDA                                             BRABEV3W04Y6BRABEVACNOR1117080OPCOES VENDA   1449000ON        2018-11-19000000000201700000E000R$             SIM                           
02ABEVW43     ABEV082OPCOES DE VENDA                                             BRABEV3W04Z3BRABEVACNOR1117080OPCOES VENDA   1457000ON        2018-11-19000000000229200000E000R$             SIM                           
02ABEVW89     ABEV082OPCOES DE VENDA                                             BRABEV3W0506BRABEVACNOR1117080OPCOES VENDA   1465000ON        2018-11-19000000000186700000E000R$             SIM                           
02ABEVX97     ABEV082OPCOES DE VENDA                                             BRABEV3X06I2BRABEVACNOR1117080OPCOES VENDA   1503000ON        2018-12-17000000000172600000E000R$             SIM                           
02ABEVX18     ABEV082OPCOES DE VENDA                                             BRABEV3X06J0BRABEVACNOR1117080OPCOES VENDA   1511000ON        2018-12-17000000000180100000E000R$             SIM                           
02ABEVX91     ABEV082OPCOES DE VENDA                                             BRABEV3X06K8BRABEVACNOR1117080OPCOES VENDA   1520000ON        2018-12-17000000000212600000E000R$             SIM                           
02ABEVX195    ABEV082OPCOES DE VENDA                                             BRABEV3X06M4BRABEVACNOR1117080OPCOES VENDA   1732000ON        2018-12-17000000000192600000E000R$             SIM                           
02ABEVW21     ABEV082OPCOES DE VENDA                                             BRABEV3W0514BRABEVACNOR1117080OPCOES VENDA   8001000ON        2018-11-19000000000206700000E000R$             SIM                           
02ABEVH20     ABEV078OPCOES DE COMPRA                                            BRABEV3H04V3BRABEVACNOR1118070OPCOES COMPRA  0019000ON        2018-08-20000000000200100000A000R$             SIM                           
02ABEVL185    ABEV078OPCOES DE COMPRA                                            BRABEV3L06N7BRABEVACNOR1118070OPCOES COMPRA  0027000ON        2018-12-17000000000185100000A000R$             SIM                           
02ABEVL203    ABEV078OPCOES DE COMPRA                                            BRABEV3L06O5BRABEVACNOR1118070OPCOES COMPRA  0035000ON        2018-12-17000000000202600000E000R$             SIM                           
02ABEVL243    ABEV078OPCOES DE COMPRA                                            BRABEV3L06P2BRABEVACNOR1118070OPCOES COMPRA  0043000ON        2018-12-17000000000242600000E000R$             SIM                           
02ABEVG228    ABEV078OPCOES DE COMPRA                                            BRABEV3G04S1BRABEVACNOR1118070OPCOES COMPRA  0051000ON        2018-07-16000000000227600000E000R$             SIM                           
02ABEVG225    ABEV078OPCOES DE COMPRA                                            BRABEV3G04T9BRABEVACNOR1118070OPCOES COMPRA  0205000ON        2018-07-16000000000225100000A000R$             SIM                           
02ABEVG20     ABEV078OPCOES DE COMPRA                                            BRABEV3G04U7BRABEVACNOR1118070OPCOES COMPRA  0213000ON        2018-07-16000000000200100000A000R$             SIM                           
02ABEVF203    ABEV078OPCOES DE COMPRA                                            BRABEV3F04Q7BRABEVACNOR1118070OPCOES COMPRA  0230000ON        2018-06-18000000000202600000E000R$             SIM                           
02ABEVE20     ABEV078OPCOES DE COMPRA                                            BRABEV3E04C0BRABEVACNOR1118070OPCOES COMPRA  0256000ON        2018-05-21000000000200100000A000R$             SIM                           
02ABEVB247    ABEV078OPCOES DE COMPRA                                            BRABEV3B0543BRABEVACNOR1118070OPCOES COMPRA  0272000ON        2019-02-18000000000246800000E000R$             SIM                           
02ABEVB215    ABEV078OPCOES DE COMPRA                                            BRABEV3B0550BRABEVACNOR1118070OPCOES COMPRA  0280000ON        2019-02-18000000000214300000A000R$             SIM                           
02ABEVB200    ABEV078OPCOES DE COMPRA                                            BRABEV3B0568BRABEVACNOR1118070OPCOES COMPRA  0299000ON        2019-02-18000000000199300000A000R$             SIM                           
02ABEVF250    ABEV078OPCOES DE COMPRA                                            BRABEV3F04R5BRABEVACNOR1118070OPCOES COMPRA  0302000ON        2018-06-18000000000250100000A000R$             SIM                           
02ABEVA207    ABEV078OPCOES DE COMPRA                                            BRABEV3A0577BRABEVACNOR1118070OPCOES COMPRA  0310000ON        2019-01-21000000000206800000E000R$             SIM                           
02ABEVA212    ABEV078OPCOES DE COMPRA                                            BRABEV3A0585BRABEVACNOR1118070OPCOES COMPRA  0329000ON        2019-01-21000000000211800000E000R$             SIM                           
02ABEVE220    ABEV078OPCOES DE COMPRA                                            BRABEV3E04D8BRABEVACNOR1118070OPCOES COMPRA  0345000ON        2018-05-21000000000220100000A000R$             SIM                           
02ABEVC222    ABEV078OPCOES DE COMPRA                                            BRABEV3C04Y8BRABEVACNOR1118070OPCOES COMPRA  0353000ON        2019-03-18000000000221800000E000R$             SIM                           
02ABEVT20     ABEV082OPCOES DE VENDA                                             BRABEV3T04V8BRABEVACNOR1118080OPCOES VENDA   0019000ON        2018-08-20000000000200100000E000R$             SIM                           
02ABEVX185    ABEV082OPCOES DE VENDA                                             BRABEV3X06N2BRABEVACNOR1118080OPCOES VENDA   0027000ON        2018-12-17000000000185100000E000R$             SIM                           
02ABEVX203    ABEV082OPCOES DE VENDA                                             BRABEV3X06O0BRABEVACNOR1118080OPCOES VENDA   0035000ON        2018-12-17000000000202600000E000R$             SIM                           
02ABEVX243    ABEV082OPCOES DE VENDA                                             BRABEV3X06P7BRABEVACNOR1118080OPCOES VENDA   0043000ON        2018-12-17000000000242600000E000R$             SIM                           
02ABEVS228    ABEV082OPCOES DE VENDA                                             BRABEV3S04S6BRABEVACNOR1118080OPCOES VENDA   0051000ON        2018-07-16000000000227600000E000R$             SIM                           
02ABEVS225    ABEV082OPCOES DE VENDA                                             BRABEV3S04T4BRABEVACNOR1118080OPCOES VENDA   0205000ON        2018-07-16000000000225100000E000R$             SIM                           
02ABEVS20     ABEV082OPCOES DE VENDA                                             BRABEV3S04U2BRABEVACNOR1118080OPCOES VENDA   0213000ON        2018-07-16000000000200100000E000R$             SIM                           
02ABEVR203    ABEV082OPCOES DE VENDA                                             BRABEV3R04Q2BRABEVACNOR1118080OPCOES VENDA   0230000ON        2018-06-18000000000202600000E000R$             SIM                           
02ABEVQ20     ABEV082OPCOES DE VENDA                                             BRABEV3Q04C4BRABEVACNOR1118080OPCOES VENDA   0256000ON        2018-05-21000000000200100000E000R$             SIM                           
02ABEVN247    ABEV082OPCOES DE VENDA                                             BRABEV3N0549BRABEVACNOR1118080OPCOES VENDA   0272000ON        2019-02-18000000000246800000E000R$             SIM                           
02ABEVN215    ABEV082OPCOES DE VENDA                                             BRABEV3N0556BRABEVACNOR1118080OPCOES VENDA   0280000ON        2019-02-18000000000214300000E000R$             SIM                           
02ABEVN200    ABEV082OPCOES DE VENDA                                             BRABEV3N0564BRABEVACNOR1118080OPCOES VENDA   0299000ON        2019-02-18000000000199300000E000R$             SIM                           
02ABEVR250    ABEV082OPCOES DE VENDA                                             BRABEV3R04R0BRABEVACNOR1118080OPCOES VENDA   0302000ON        2018-06-18000000000250100000E000R$             SIM                           
02ABEVM207    ABEV082OPCOES DE VENDA                                             BRABEV3M0565BRABEVACNOR1118080OPCOES VENDA   0310000ON        2019-01-21000000000206800000E000R$             SIM                           
02ABEVM212    ABEV082OPCOES DE VENDA                                             BRABEV3M0573BRABEVACNOR1118080OPCOES VENDA   0329000ON        2019-01-21000000000211800000E000R$             SIM                           
02ABEVQ220    ABEV082OPCOES DE VENDA                                             BRABEV3Q04D2BRABEVACNOR1118080OPCOES VENDA   0345000ON        2018-05-21000000000220100000E000R$             SIM                           
02ABEVO222    ABEV082OPCOES DE VENDA                                             BRABEV3O04Y3BRABEVACNOR1118080OPCOES VENDA   0353000ON        2019-03-18000000000221800000E000R$             SIM                           
02ABEV3       ABEV002LOTE PADRAO                                                 BRABEVACNOR1BRABEVACNOR1119010VISTA          0000000ON        9999-12-31000000000000000000 000R$             SIM                           
02ABEV3S      ABEV062MERCADO A TERMO                                             BRABEVTSO002BRABEVACNOR1119030TERMO          0000000ON        9999-12-31000000000000000000 000R$             SIM                           
02ABEV3T      ABEV062MERCADO A TERMO                                             BRABEVTNO003BRABEVACNOR1119030TERMO          0000000ON        9999-12-31000000000000000000 000R$             SIM                           
02ABEVH237    ABEV078OPCOES DE COMPRA                                            BRABEV3H04W1BRABEVACNOR1119070OPCOES COMPRA  0019000ON        2018-08-20000000000237600000E000R$             SIM                           
02ABEVI229    ABEV078OPCOES DE COMPRA                                            BRABEV3I04V1BRABEVACNOR1119070OPCOES COMPRA  0027000ON        2018-09-17000000000229200000E000R$             SIM                           
02ABEVE47     ABEV078OPCOES DE COMPRA                                            BRABEV3E04E6BRABEVACNOR1119070OPCOES COMPRA  0035000ON        2018-05-21000000000175100000A000R$             SIM                           
02ABEVE19     ABEV078OPCOES DE COMPRA                                            BRABEV3E04F3BRABEVACNOR1119070OPCOES COMPRA  0043000ON        2018-05-21000000000190100000A000R$             SIM                           
02ABEVE51     ABEV078OPCOES DE COMPRA                                            BRABEV3E04G1BRABEVACNOR1119070OPCOES COMPRA  0051000ON        2018-05-21000000000215100000A000R$             SIM                           
02ABEVE23     ABEV078OPCOES DE COMPRA                                            BRABEV3E04H9BRABEVACNOR1119070OPCOES COMPRA  0060000ON        2018-05-21000000000230100000A000R$             SIM                           
02ABEVE53     ABEV078OPCOES DE COMPRA                                            BRABEV3E04I7BRABEVACNOR1119070OPCOES COMPRA  0078000ON        2018-05-21000000000235100000A000R$             SIM                           
02ABEVE24     ABEV078OPCOES DE COMPRA                                            BRABEV3E04J5BRABEVACNOR1119070OPCOES COMPRA  0086000ON        2018-05-21000000000240100000A000R$             SIM                           
02ABEVE54     ABEV078OPCOES DE COMPRA                                            BRABEV3E04K3BRABEVACNOR1119070OPCOES COMPRA  0094000ON        2018-05-21000000000245100000A000R$             SIM                           
02ABEVE55     ABEV078OPCOES DE COMPRA                                            BRABEV3E04L1BRABEVACNOR1119070OPCOES COMPRA  0108000ON        2018-05-21000000000255100000A000R$             SIM                           
02ABEVE250    ABEV078OPCOES DE COMPRA                                            BRABEV3E04M9BRABEVACNOR1119070OPCOES COMPRA  0116000ON        2018-05-21000000000250100000A000R$             SIM                           
02ABEVE260    ABEV078OPCOES DE COMPRA                                            BRABEV3E04N7BRABEVACNOR1119070OPCOES COMPRA  0124000ON        2018-05-21000000000260100000A000R$             SIM                           
02ABEVH232    ABEV078OPCOES DE COMPRA                                            BRABEV3H04X9BRABEVACNOR1119070OPCOES COMPRA  0140000ON        2018-08-20000000000232600000E000R$             SIM                           
02ABEVE222    ABEV078OPCOES DE COMPRA                                            BRABEV3E04O5BRABEVACNOR1119070OPCOES COMPRA  0159000ON        2018-05-21000000000222600000E000R$             SIM                           
02ABEVG192    ABEV078OPCOES DE COMPRA                                            BRABEV3G04V5BRABEVACNOR1119070OPCOES COMPRA  0191000ON        2018-07-16000000000192600000E000R$             SIM                           
02ABEVG195    ABEV078OPCOES DE COMPRA                                            BRABEV3G04W3BRABEVACNOR1119070OPCOES COMPRA  0205000ON        2018-07-16000000000195100000A000R$             SIM                           
02ABEVF207    ABEV078OPCOES DE COMPRA                                            BRABEV3F04S3BRABEVACNOR1119070OPCOES COMPRA  0213000ON        2018-06-18000000000207600000E000R$             SIM                           
02ABEVL220    ABEV078OPCOES DE COMPRA                                            BRABEV3L06Q0BRABEVACNOR1119070OPCOES COMPRA  0221000ON        2018-12-17000000000220100000A000R$             SIM                           
02ABEVF230    ABEV078OPCOES DE COMPRA                                            BRABEV3F04T1BRABEVACNOR1119070OPCOES COMPRA  0230000ON        2018-06-18000000000230100000A000R$             SIM                           
02ABEVH245    ABEV078OPCOES DE COMPRA                                            BRABEV3H04Y7BRABEVACNOR1119070OPCOES COMPRA  0264000ON        2018-08-20000000000245100000A000R$             SIM                           
02ABEVI222    ABEV078OPCOES DE COMPRA                                            BRABEV3I04W9BRABEVACNOR1119070OPCOES COMPRA  0272000ON        2019-09-16000000000222500000E000R$             SIM                           
02ABEVD210    ABEV078OPCOES DE COMPRA                                            BRABEV3D0566BRABEVACNOR1119070OPCOES COMPRA  0280000ON        2019-04-15000000000210000000A000R$             SIM                           
02ABEVD262    ABEV078OPCOES DE COMPRA                                            BRABEV3D0574BRABEVACNOR1119070OPCOES COMPRA  0299000ON        2019-04-15000000000262500000E000R$             SIM                           
02ABEVC196    ABEV078OPCOES DE COMPRA                                            BRABEV3C0526BRABEVACNOR1119070OPCOES COMPRA  0302000ON        2019-03-18000000000196800000E000R$             SIM                           
02ABEVC201    ABEV078OPCOES DE COMPRA                                            BRABEV3C0534BRABEVACNOR1119070OPCOES COMPRA  0310000ON        2019-03-18000000000201800000E000R$             SIM                           
02ABEVH247    ABEV078OPCOES DE COMPRA                                            BRABEV3H04Z4BRABEVACNOR1119070OPCOES COMPRA  0329000ON        2018-08-20000000000247600000E000R$             SIM                           
02ABEVA221    ABEV078OPCOES DE COMPRA                                            BRABEV3A0593BRABEVACNOR1119070OPCOES COMPRA  0337000ON        2019-01-21000000000221800000E000R$             SIM                           
02ABEVI237    ABEV078OPCOES DE COMPRA                                            BRABEV3I04X7BRABEVACNOR1119070OPCOES COMPRA  0345000ON        2019-09-16000000000237500000E000R$             SIM                           
02ABEVE56     ABEV078OPCOES DE COMPRA                                            BRABEV3E04P2BRABEVACNOR1119070OPCOES COMPRA  0388000ON        2018-05-21000000000265100000A000R$             SIM                           
02ABEVF21     ABEV078OPCOES DE COMPRA                                            BRABEV3F04U9BRABEVACNOR1119070OPCOES COMPRA  0396000ON        2018-06-18000000000210100000A000R$             SIM                           
02ABEVF51     ABEV078OPCOES DE COMPRA                                            BRABEV3F04V7BRABEVACNOR1119070OPCOES COMPRA  0400000ON        2018-06-18000000000215100000A000R$             SIM                           
02ABEVF22     ABEV078OPCOES DE COMPRA                                            BRABEV3F04W5BRABEVACNOR1119070OPCOES COMPRA  0418000ON        2018-06-18000000000220100000A000R$             SIM                           
02ABEVF52     ABEV078OPCOES DE COMPRA                                            BRABEV3F04X3BRABEVACNOR1119070OPCOES COMPRA  0426000ON        2018-06-18000000000225100000A000R$             SIM                           
02ABEVF53     ABEV078OPCOES DE COMPRA                                            BRABEV3F04Y1BRABEVACNOR1119070OPCOES COMPRA  0434000ON        2018-06-18000000000235100000A000R$             SIM                           
02ABEVF24     ABEV078OPCOES DE COMPRA                                            BRABEV3F04Z8BRABEVACNOR1119070OPCOES COMPRA  0442000ON        2018-06-18000000000240100000A000R$             SIM                           
02ABEVF54     ABEV078OPCOES DE COMPRA                                            BRABEV3F0507BRABEVACNOR1119070OPCOES COMPRA  0450000ON        2018-06-18000000000245100000A000R$             SIM                           
02ABEVF55     ABEV078OPCOES DE COMPRA                                            BRABEV3F0515BRABEVACNOR1119070OPCOES COMPRA  0469000ON        2018-06-18000000000255100000A000R$             SIM                           
02ABEVF26     ABEV078OPCOES DE COMPRA                                            BRABEV3F0523BRABEVACNOR1119070OPCOES COMPRA  0477000ON        2018-06-18000000000260100000A000R$             SIM                           
02ABEVF56     ABEV078OPCOES DE COMPRA                                            BRABEV3F0531BRABEVACNOR1119070OPCOES COMPRA  0485000ON        2018-06-18000000000265100000A000R$             SIM                           
02ABEVF27     ABEV078OPCOES DE COMPRA                                            BRABEV3F0549BRABEVACNOR1119070OPCOES COMPRA  0493000ON        2018-06-18000000000270100000A000R$             SIM                           
02ABEVF28     ABEV078OPCOES DE COMPRA                                            BRABEV3F0556BRABEVACNOR1119070OPCOES COMPRA  0507000ON        2018-06-18000000000280100000A000R$             SIM                           
02ABEVF58     ABEV078OPCOES DE COMPRA                                            BRABEV3F0564BRABEVACNOR1119070OPCOES COMPRA  0515000ON        2018-06-18000000000285100000A000R$             SIM                           
02ABEVF29     ABEV078OPCOES DE COMPRA                                            BRABEV3F0572BRABEVACNOR1119070OPCOES COMPRA  0523000ON        2018-06-18000000000290100000A000R$             SIM                           
02ABEVL272    ABEV078OPCOES DE COMPRA                                            BRABEV3L06R8BRABEVACNOR1119070OPCOES COMPRA  0531000ON        2018-12-17000000000272600000E000R$             SIM                           
02ABEVJ24     ABEV078OPCOES DE COMPRA                                            BRABEV3J04D7BRABEVACNOR1119070OPCOES COMPRA  0540000ON        2018-10-15000000000240000000A000R$             SIM                           
02ABEVD222    ABEV078OPCOES DE COMPRA                                            BRABEV3D05B1BRABEVACNOR1119070OPCOES COMPRA  0558000ON        2019-04-15000000000222500000E000R$             SIM                           
02ABEVD225    ABEV078OPCOES DE COMPRA                                            BRABEV3D05C9BRABEVACNOR1119070OPCOES COMPRA  0566000ON        2019-04-15000000000225000000A000R$             SIM                           
02ABEVD237    ABEV078OPCOES DE COMPRA                                            BRABEV3D05D7BRABEVACNOR1119070OPCOES COMPRA  0574000ON        2019-04-15000000000237500000E000R$             SIM                           
02ABEVD240    ABEV078OPCOES DE COMPRA                                            BRABEV3D05E5BRABEVACNOR1119070OPCOES COMPRA  0582000ON        2019-04-15000000000240000000A000R$             SIM                           
02ABEVD242    ABEV078OPCOES DE COMPRA                                            BRABEV3D05F2BRABEVACNOR1119070OPCOES COMPRA  0590000ON        2019-04-15000000000242500000E000R$             SIM                           
02ABEVD245    ABEV078OPCOES DE COMPRA                                            BRABEV3D05G0BRABEVACNOR1119070OPCOES COMPRA  0604000ON        2019-04-15000000000245000000A000R$             SIM                           
02ABEVL207    ABEV078OPCOES DE COMPRA                                            BRABEV3L06S6BRABEVACNOR1119070OPCOES COMPRA  0612000ON        2018-12-17000000000207600000E000R$             SIM                           
02ABEVD220    ABEV078OPCOES DE COMPRA                                            BRABEV3D05H8BRABEVACNOR1119070OPCOES COMPRA  0620000ON        2019-04-15000000000220000000A000R$             SIM                           
02ABEVD272    ABEV078OPCOES DE COMPRA                                            BRABEV3D05I6BRABEVACNOR1119070OPCOES COMPRA  0639000ON        2019-04-15000000000272500000E000R$             SIM                           
02ABEVI224    ABEV078OPCOES DE COMPRA                                            BRABEV3I04Y5BRABEVACNOR1119070OPCOES COMPRA  0647000ON        2018-09-17000000000224200000E000R$             SIM                           
02ABEVJ227    ABEV078OPCOES DE COMPRA                                            BRABEV3J04E5BRABEVACNOR1119070OPCOES COMPRA  0663000ON        2018-10-15000000000227500000E000R$             SIM                           
02ABEVJ252    ABEV078OPCOES DE COMPRA                                            BRABEV3J04F2BRABEVACNOR1119070OPCOES COMPRA  0671000ON        2018-10-15000000000252500000E000R$             SIM                           
02ABEVG247    ABEV078OPCOES DE COMPRA                                            BRABEV3G04X1BRABEVACNOR1119070OPCOES COMPRA  0680000ON        2018-07-16000000000247600000E000R$             SIM                           
02ABEVG250    ABEV078OPCOES DE COMPRA                                            BRABEV3G04Y9BRABEVACNOR1119070OPCOES COMPRA  0698000ON        2019-07-15000000000250000000A000R$             SIM                           
02ABEVJ20     ABEV078OPCOES DE COMPRA                                            BRABEV3J04G0BRABEVACNOR1119070OPCOES COMPRA  0701000ON        2018-10-15000000000200000000A000R$             SIM                           
02ABEVJ202    ABEV078OPCOES DE COMPRA                                            BRABEV3J04H8BRABEVACNOR1119070OPCOES COMPRA  0710000ON        2018-10-15000000000202500000E000R$             SIM                           
02ABEVG237    ABEV078OPCOES DE COMPRA                                            BRABEV3G04Z6BRABEVACNOR1119070OPCOES COMPRA  0728000ON        2018-07-16000000000237600000E000R$             SIM                           
02ABEVE237    ABEV078OPCOES DE COMPRA                                            BRABEV3E04Q0BRABEVACNOR1119070OPCOES COMPRA  0736000ON        2018-05-21000000000237600000E000R$             SIM                           
02ABEVJ215    ABEV078OPCOES DE COMPRA                                            BRABEV3J04I6BRABEVACNOR1119070OPCOES COMPRA  0744000ON        2018-10-15000000000215000000A000R$             SIM                           
02ABEVC311    ABEV078OPCOES DE COMPRA                                            BRABEV3C0542BRABEVACNOR1119070OPCOES COMPRA  0752000ON        2019-03-18000000000311800000E000R$             SIM                           
02ABEVE242    ABEV078OPCOES DE COMPRA                                            BRABEV3E04R8BRABEVACNOR1119070OPCOES COMPRA  0760000ON        2018-05-21000000000242600000E000R$             SIM                           
02ABEVJ197    ABEV078OPCOES DE COMPRA                                            BRABEV3J04J4BRABEVACNOR1119070OPCOES COMPRA  0779000ON        2018-10-15000000000197500000E000R$             SIM                           
02ABEVG23     ABEV078OPCOES DE COMPRA                                            BRABEV3G0506BRABEVACNOR1119070OPCOES COMPRA  0787000ON        2018-07-16000000000230100000A000R$             SIM                           
02ABEVG53     ABEV078OPCOES DE COMPRA                                            BRABEV3G0514BRABEVACNOR1119070OPCOES COMPRA  0795000ON        2018-07-16000000000235100000A000R$             SIM                           
02ABEVG24     ABEV078OPCOES DE COMPRA                                            BRABEV3G0522BRABEVACNOR1119070OPCOES COMPRA  0809000ON        2018-07-16000000000240100000A000R$             SIM                           
02ABEVG54     ABEV078OPCOES DE COMPRA                                            BRABEV3G0530BRABEVACNOR1119070OPCOES COMPRA  0817000ON        2018-07-16000000000245100000A000R$             SIM                           
02ABEVG25     ABEV078OPCOES DE COMPRA                                            BRABEV3G0548BRABEVACNOR1119070OPCOES COMPRA  0825000ON        2018-07-16000000000250100000A000R$             SIM                           
02ABEVG55     ABEV078OPCOES DE COMPRA                                            BRABEV3G0555BRABEVACNOR1119070OPCOES COMPRA  0833000ON        2018-07-16000000000255100000A000R$             SIM                           
02ABEVG26     ABEV078OPCOES DE COMPRA                                            BRABEV3G0563BRABEVACNOR1119070OPCOES COMPRA  0841000ON        2018-07-16000000000260100000A000R$             SIM                           
02ABEVG56     ABEV078OPCOES DE COMPRA                                            BRABEV3G0571BRABEVACNOR1119070OPCOES COMPRA  0850000ON        2018-07-16000000000265100000A000R$             SIM                           
02ABEVG21     ABEV078OPCOES DE COMPRA                                            BRABEV3G0589BRABEVACNOR1119070OPCOES COMPRA  0868000ON        2018-07-16000000000210100000A000R$             SIM                           
02ABEVG51     ABEV078OPCOES DE COMPRA                                            BRABEV3G0597BRABEVACNOR1119070OPCOES COMPRA  0876000ON        2018-07-16000000000215100000A000R$             SIM                           
02ABEVG22     ABEV078OPCOES DE COMPRA                                            BRABEV3G05A6BRABEVACNOR1119070OPCOES COMPRA  0884000ON        2018-07-16000000000220100000A000R$             SIM                           
02ABEVG27     ABEV078OPCOES DE COMPRA                                            BRABEV3G05B4BRABEVACNOR1119070OPCOES COMPRA  0892000ON        2018-07-16000000000270100000A000R$             SIM                           
02ABEVG57     ABEV078OPCOES DE COMPRA                                            BRABEV3G05C2BRABEVACNOR1119070OPCOES COMPRA  0906000ON        2018-07-16000000000275100000A000R$             SIM                           
02ABEVF242    ABEV078OPCOES DE COMPRA                                            BRABEV3F0580BRABEVACNOR1119070OPCOES COMPRA  0914000ON        2018-06-18000000000242600000E000R$             SIM                           
02ABEVG222    ABEV078OPCOES DE COMPRA                                            BRABEV3G05D0BRABEVACNOR1119070OPCOES COMPRA  0922000ON        2018-07-16000000000222600000E000R$             SIM                           
02ABEVF172    ABEV078OPCOES DE COMPRA                                            BRABEV3F0598BRABEVACNOR1119070OPCOES COMPRA  0930000ON        2018-06-18000000000172600000E000R$             SIM                           
02ABEVJ195    ABEV078OPCOES DE COMPRA                                            BRABEV3J04K2BRABEVACNOR1119070OPCOES COMPRA  0949000ON        2018-10-15000000000195000000A000R$             SIM                           
02ABEVJ230    ABEV078OPCOES DE COMPRA                                            BRABEV3J04L0BRABEVACNOR1119070OPCOES COMPRA  0957000ON        2018-10-15000000000230000000A000R$             SIM                           
02ABEVD215    ABEV078OPCOES DE COMPRA                                            BRABEV3D05K2BRABEVACNOR1119070OPCOES COMPRA  0965000ON        2019-04-15000000000215000000A000R$             SIM                           
02ABEVL252    ABEV078OPCOES DE COMPRA                                            BRABEV3L06T4BRABEVACNOR1119070OPCOES COMPRA  0973000ON        2018-12-17000000000252600000E000R$             SIM                           
02ABEVE195    ABEV078OPCOES DE COMPRA                                            BRABEV3E04S6BRABEVACNOR1119070OPCOES COMPRA  0981000ON        2019-05-20000000000195000000A000R$             SIM                           
02ABEVE227    ABEV078OPCOES DE COMPRA                                            BRABEV3E04T4BRABEVACNOR1119070OPCOES COMPRA  0990000ON        2019-05-20000000000227500000E000R$             SIM                           
02ABEVL175    ABEV078OPCOES DE COMPRA                                            BRABEV3L06U2BRABEVACNOR1119070OPCOES COMPRA  1007000ON        2018-12-17000000000175100000A000R$             SIM                           
02ABEVL95     ABEV078OPCOES DE COMPRA                                            BRABEV3L06V0BRABEVACNOR1119070OPCOES COMPRA  1015000ON        2018-12-17000000000195100000A000R$             SIM                           
02ABEVL222    ABEV078OPCOES DE COMPRA                                            BRABEV3L06W8BRABEVACNOR1119070OPCOES COMPRA  1023000ON        2018-12-17000000000222600000E000R$             SIM                           
02ABEVL167    ABEV078OPCOES DE COMPRA                                            BRABEV3L06X6BRABEVACNOR1119070OPCOES COMPRA  1031000ON        2018-12-17000000000167600000E000R$             SIM                           
02ABEVE267    ABEV078OPCOES DE COMPRA                                            BRABEV3E04U2BRABEVACNOR1119070OPCOES COMPRA  1040000ON        2018-05-21000000000267600000E000R$             SIM                           
02ABEVG242    ABEV078OPCOES DE COMPRA                                            BRABEV3G05E8BRABEVACNOR1119070OPCOES COMPRA  1058000ON        2018-07-16000000000242600000E000R$             SIM                           
02ABEVK231    ABEV078OPCOES DE COMPRA                                            BRABEV3K0526BRABEVACNOR1119070OPCOES COMPRA  1066000ON        2018-11-19000000000231700000A000R$             SIM                           
02ABEVK209    ABEV078OPCOES DE COMPRA                                            BRABEV3K0534BRABEVACNOR1119070OPCOES COMPRA  1074000ON        2018-11-19000000000209200000E000R$             SIM                           
02ABEVK219    ABEV078OPCOES DE COMPRA                                            BRABEV3K0542BRABEVACNOR1119070OPCOES COMPRA  1082000ON        2018-11-19000000000219200000E000R$             SIM                           
02ABEVT237    ABEV082OPCOES DE VENDA                                             BRABEV3T04W6BRABEVACNOR1119080OPCOES VENDA   0019000ON        2018-08-20000000000237600000E000R$             SIM                           
02ABEVU229    ABEV082OPCOES DE VENDA                                             BRABEV3U04V6BRABEVACNOR1119080OPCOES VENDA   0027000ON        2018-09-17000000000229200000E000R$             SIM                           
02ABEVQ47     ABEV082OPCOES DE VENDA                                             BRABEV3Q04E0BRABEVACNOR1119080OPCOES VENDA   0035000ON        2018-05-21000000000175100000E000R$             SIM                           
02ABEVQ19     ABEV082OPCOES DE VENDA                                             BRABEV3Q04F7BRABEVACNOR1119080OPCOES VENDA   0043000ON        2018-05-21000000000190100000E000R$             SIM                           
02ABEVQ51     ABEV082OPCOES DE VENDA                                             BRABEV3Q04G5BRABEVACNOR1119080OPCOES VENDA   0051000ON        2018-05-21000000000215100000E000R$             SIM                           
02ABEVQ23     ABEV082OPCOES DE VENDA                                             BRABEV3Q04H3BRABEVACNOR1119080OPCOES VENDA   0060000ON        2018-05-21000000000230100000E000R$             SIM                           
02ABEVQ53     ABEV082OPCOES DE VENDA                                             BRABEV3Q04I1BRABEVACNOR1119080OPCOES VENDA   0078000ON        2018-05-21000000000235100000E000R$             SIM                           
02ABEVQ24     ABEV082OPCOES DE VENDA                                             BRABEV3Q04J9BRABEVACNOR1119080OPCOES VENDA   0086000ON        2018-05-21000000000240100000E000R$             SIM                           
02ABEVQ54     ABEV082OPCOES DE VENDA                                             BRABEV3Q04K7BRABEVACNOR1119080OPCOES VENDA   0094000ON        2018-05-21000000000245100000E000R$             SIM                           
02ABEVQ55     ABEV082OPCOES DE VENDA                                             BRABEV3Q04L5BRABEVACNOR1119080OPCOES VENDA   0108000ON        2018-05-21000000000255100000E000R$             SIM                           
02ABEVQ250    ABEV082OPCOES DE VENDA                                             BRABEV3Q04M3BRABEVACNOR1119080OPCOES VENDA   0116000ON        2018-05-21000000000250100000E000R$             SIM                           
02ABEVQ260    ABEV082OPCOES DE VENDA                                             BRABEV3Q04N1BRABEVACNOR1119080OPCOES VENDA   0124000ON        2018-05-21000000000260100000E000R$             SIM                           
02ABEVT232    ABEV082OPCOES DE VENDA                                             BRABEV3T04X4BRABEVACNOR1119080OPCOES VENDA   0140000ON        2018-08-20000000000232600000E000R$             SIM                           
02ABEVQ222    ABEV082OPCOES DE VENDA                                             BRABEV3Q04O9BRABEVACNOR1119080OPCOES VENDA   0159000ON        2018-05-21000000000222600000E000R$             SIM                           
02ABEVS192    ABEV082OPCOES DE VENDA                                             BRABEV3S04V0BRABEVACNOR1119080OPCOES VENDA   0191000ON        2018-07-16000000000192600000E000R$             SIM                           
02ABEVS195    ABEV082OPCOES DE VENDA                                             BRABEV3S04W8BRABEVACNOR1119080OPCOES VENDA   0205000ON        2018-07-16000000000195100000E000R$             SIM                           
02ABEVR207    ABEV082OPCOES DE VENDA                                             BRABEV3R04S8BRABEVACNOR1119080OPCOES VENDA   0213000ON        2018-06-18000000000207600000E000R$             SIM                           
02ABEVX220    ABEV082OPCOES DE VENDA                                             BRABEV3X06Q5BRABEVACNOR1119080OPCOES VENDA   0221000ON        2018-12-17000000000220100000E000R$             SIM                           
02ABEVR230    ABEV082OPCOES DE VENDA                                             BRABEV3R04T6BRABEVACNOR1119080OPCOES VENDA   0230000ON        2018-06-18000000000230100000E000R$             SIM                           
02ABEVT245    ABEV082OPCOES DE VENDA                                             BRABEV3T04Y2BRABEVACNOR1119080OPCOES VENDA   0264000ON        2018-08-20000000000245100000E000R$             SIM                           
02ABEVU222    ABEV082OPCOES DE VENDA                                             BRABEV3U04W4BRABEVACNOR1119080OPCOES VENDA   0272000ON        2019-09-16000000000222500000E000R$             SIM                           
02ABEVP210    ABEV082OPCOES DE VENDA                                             BRABEV3P0562BRABEVACNOR1119080OPCOES VENDA   0280000ON        2019-04-15000000000210000000E000R$             SIM                           
02ABEVP262    ABEV082OPCOES DE VENDA                                             BRABEV3P0570BRABEVACNOR1119080OPCOES VENDA   0299000ON        2019-04-15000000000262500000E000R$             SIM                           
02ABEVO196    ABEV082OPCOES DE VENDA                                             BRABEV3O0522BRABEVACNOR1119080OPCOES VENDA   0302000ON        2019-03-18000000000196800000E000R$             SIM                           
02ABEVO201    ABEV082OPCOES DE VENDA                                             BRABEV3O0530BRABEVACNOR1119080OPCOES VENDA   0310000ON        2019-03-18000000000201800000E000R$             SIM                           
02ABEVT247    ABEV082OPCOES DE VENDA                                             BRABEV3T04Z9BRABEVACNOR1119080OPCOES VENDA   0329000ON        2018-08-20000000000247600000E000R$             SIM                           
02ABEVM221    ABEV082OPCOES DE VENDA                                             BRABEV3M0581BRABEVACNOR1119080OPCOES VENDA   0337000ON        2019-01-21000000000221800000E000R$             SIM                           
02ABEVU237    ABEV082OPCOES DE VENDA                                             BRABEV3U04X2BRABEVACNOR1119080OPCOES VENDA   0345000ON        2019-09-16000000000237500000E000R$             SIM                           
02ABEVQ56     ABEV082OPCOES DE VENDA                                             BRABEV3Q04P6BRABEVACNOR1119080OPCOES VENDA   0388000ON        2018-05-21000000000265100000E000R$             SIM                           
02ABEVR21     ABEV082OPCOES DE VENDA                                             BRABEV3R04U4BRABEVACNOR1119080OPCOES VENDA   0396000ON        2018-06-18000000000210100000E000R$             SIM                           
02ABEVR51     ABEV082OPCOES DE VENDA                                             BRABEV3R04V2BRABEVACNOR1119080OPCOES VENDA   0400000ON        2018-06-18000000000215100000E000R$             SIM                           
02ABEVR22     ABEV082OPCOES DE VENDA                                             BRABEV3R04W0BRABEVACNOR1119080OPCOES VENDA   0418000ON        2018-06-18000000000220100000E000R$             SIM                           
02ABEVR52     ABEV082OPCOES DE VENDA                                             BRABEV3R04X8BRABEVACNOR1119080OPCOES VENDA   0426000ON        2018-06-18000000000225100000E000R$             SIM                           
02ABEVR53     ABEV082OPCOES DE VENDA                                             BRABEV3R04Y6BRABEVACNOR1119080OPCOES VENDA   0434000ON        2018-06-18000000000235100000E000R$             SIM                           
02ABEVR24     ABEV082OPCOES DE VENDA                                             BRABEV3R04Z3BRABEVACNOR1119080OPCOES VENDA   0442000ON        2018-06-18000000000240100000E000R$             SIM                           
02ABEVR54     ABEV082OPCOES DE VENDA                                             BRABEV3R0503BRABEVACNOR1119080OPCOES VENDA   0450000ON        2018-06-18000000000245100000E000R$             SIM                           
02ABEVR55     ABEV082OPCOES DE VENDA                                             BRABEV3R0511BRABEVACNOR1119080OPCOES VENDA   0469000ON        2018-06-18000000000255100000E000R$             SIM                           
02ABEVR26     ABEV082OPCOES DE VENDA                                             BRABEV3R0529BRABEVACNOR1119080OPCOES VENDA   0477000ON        2018-06-18000000000260100000E000R$             SIM                           
02ABEVR56     ABEV082OPCOES DE VENDA                                             BRABEV3R0537BRABEVACNOR1119080OPCOES VENDA   0485000ON        2018-06-18000000000265100000E000R$             SIM                           
02ABEVR27     ABEV082OPCOES DE VENDA                                             BRABEV3R0545BRABEVACNOR1119080OPCOES VENDA   0493000ON        2018-06-18000000000270100000E000R$             SIM                           
02ABEVR28     ABEV082OPCOES DE VENDA                                             BRABEV3R0552BRABEVACNOR1119080OPCOES VENDA   0507000ON        2018-06-18000000000280100000E000R$             SIM                           
02ABEVR58     ABEV082OPCOES DE VENDA                                             BRABEV3R0560BRABEVACNOR1119080OPCOES VENDA   0515000ON        2018-06-18000000000285100000E000R$             SIM                           
02ABEVR29     ABEV082OPCOES DE VENDA                                             BRABEV3R0578BRABEVACNOR1119080OPCOES VENDA   0523000ON        2018-06-18000000000290100000E000R$             SIM                           
02ABEVX272    ABEV082OPCOES DE VENDA                                             BRABEV3X06R3BRABEVACNOR1119080OPCOES VENDA   0531000ON        2018-12-17000000000272600000E000R$             SIM                           
02ABEVV24     ABEV082OPCOES DE VENDA                                             BRABEV3V04D2BRABEVACNOR1119080OPCOES VENDA   0540000ON        2018-10-15000000000240000000E000R$             SIM                           
02ABEVP222    ABEV082OPCOES DE VENDA                                             BRABEV3P05B5BRABEVACNOR1119080OPCOES VENDA   0558000ON        2019-04-15000000000222500000E000R$             SIM                           
02ABEVP225    ABEV082OPCOES DE VENDA                                             BRABEV3P05C3BRABEVACNOR1119080OPCOES VENDA   0566000ON        2019-04-15000000000225000000E000R$             SIM                           
02ABEVP237    ABEV082OPCOES DE VENDA                                             BRABEV3P05D1BRABEVACNOR1119080OPCOES VENDA   0574000ON        2019-04-15000000000237500000E000R$             SIM                           
02ABEVP240    ABEV082OPCOES DE VENDA                                             BRABEV3P05E9BRABEVACNOR1119080OPCOES VENDA   0582000ON        2019-04-15000000000240000000E000R$             SIM                           
02ABEVP242    ABEV082OPCOES DE VENDA                                             BRABEV3P05F6BRABEVACNOR1119080OPCOES VENDA   0590000ON        2019-04-15000000000242500000E000R$             SIM                           
02ABEVP245    ABEV082OPCOES DE VENDA                                             BRABEV3P05G4BRABEVACNOR1119080OPCOES VENDA   0604000ON        2019-04-15000000000245000000E000R$             SIM                           
02ABEVX207    ABEV082OPCOES DE VENDA                                             BRABEV3X06S1BRABEVACNOR1119080OPCOES VENDA   0612000ON        2018-12-17000000000207600000E000R$             SIM                           
02ABEVP220    ABEV082OPCOES DE VENDA                                             BRABEV3P05H2BRABEVACNOR1119080OPCOES VENDA   0620000ON        2019-04-15000000000220000000E000R$             SIM                           
02ABEVP272    ABEV082OPCOES DE VENDA                                             BRABEV3P05I0BRABEVACNOR1119080OPCOES VENDA   0639000ON        2019-04-15000000000272500000E000R$             SIM                           
02ABEVU224    ABEV082OPCOES DE VENDA                                             BRABEV3U04Y0BRABEVACNOR1119080OPCOES VENDA   0647000ON        2018-09-17000000000224200000E000R$             SIM                           
02ABEVV227    ABEV082OPCOES DE VENDA                                             BRABEV3V04E0BRABEVACNOR1119080OPCOES VENDA   0663000ON        2018-10-15000000000227500000E000R$             SIM                           
02ABEVV252    ABEV082OPCOES DE VENDA                                             BRABEV3V04F7BRABEVACNOR1119080OPCOES VENDA   0671000ON        2018-10-15000000000252500000E000R$             SIM                           
02ABEVS247    ABEV082OPCOES DE VENDA                                             BRABEV3S04X6BRABEVACNOR1119080OPCOES VENDA   0680000ON        2018-07-16000000000247600000E000R$             SIM                           
02ABEVS250    ABEV082OPCOES DE VENDA                                             BRABEV3S04Y4BRABEVACNOR1119080OPCOES VENDA   0698000ON        2019-07-15000000000250000000E000R$             SIM                           
02ABEVV20     ABEV082OPCOES DE VENDA                                             BRABEV3V04G5BRABEVACNOR1119080OPCOES VENDA   0701000ON        2018-10-15000000000200000000E000R$             SIM                           
02ABEVV202    ABEV082OPCOES DE VENDA                                             BRABEV3V04H3BRABEVACNOR1119080OPCOES VENDA   0710000ON        2018-10-15000000000202500000E000R$             SIM                           
02ABEVS237    ABEV082OPCOES DE VENDA                                             BRABEV3S04Z1BRABEVACNOR1119080OPCOES VENDA   0728000ON        2018-07-16000000000237600000E000R$             SIM                           
02ABEVQ237    ABEV082OPCOES DE VENDA                                             BRABEV3Q04Q4BRABEVACNOR1119080OPCOES VENDA   0736000ON        2018-05-21000000000237600000E000R$             SIM                           
02ABEVV215    ABEV082OPCOES DE VENDA                                             BRABEV3V04I1BRABEVACNOR1119080OPCOES VENDA   0744000ON        2018-10-15000000000215000000E000R$             SIM                           
02ABEVO311    ABEV082OPCOES DE VENDA                                             BRABEV3O0548BRABEVACNOR1119080OPCOES VENDA   0752000ON        2019-03-18000000000311800000E000R$             SIM                           
02ABEVQ242    ABEV082OPCOES DE VENDA                                             BRABEV3Q04R2BRABEVACNOR1119080OPCOES VENDA   0760000ON        2018-05-21000000000242600000E000R$             SIM                           
02ABEVV197    ABEV082OPCOES DE VENDA                                             BRABEV3V04J9BRABEVACNOR1119080OPCOES VENDA   0779000ON        2018-10-15000000000197500000E000R$             SIM                           
02ABEVS23     ABEV082OPCOES DE VENDA                                             BRABEV3S0502BRABEVACNOR1119080OPCOES VENDA   0787000ON        2018-07-16000000000230100000E000R$             SIM                           
02ABEVS53     ABEV082OPCOES DE VENDA                                             BRABEV3S0510BRABEVACNOR1119080OPCOES VENDA   0795000ON        2018-07-16000000000235100000E000R$             SIM                           
02ABEVS24     ABEV082OPCOES DE VENDA                                             BRABEV3S0528BRABEVACNOR1119080OPCOES VENDA   0809000ON        2018-07-16000000000240100000E000R$             SIM                           
02ABEVS54     ABEV082OPCOES DE VENDA                                             BRABEV3S0536BRABEVACNOR1119080OPCOES VENDA   0817000ON        2018-07-16000000000245100000E000R$             SIM                           
02ABEVS25     ABEV082OPCOES DE VENDA                                             BRABEV3S0544BRABEVACNOR1119080OPCOES VENDA   0825000ON        2018-07-16000000000250100000E000R$             SIM                           
02ABEVS55     ABEV082OPCOES DE VENDA                                             BRABEV3S0551BRABEVACNOR1119080OPCOES VENDA   0833000ON        2018-07-16000000000255100000E000R$             SIM                           
02ABEVS26     ABEV082OPCOES DE VENDA                                             BRABEV3S0569BRABEVACNOR1119080OPCOES VENDA   0841000ON        2018-07-16000000000260100000E000R$             SIM                           
02ABEVS56     ABEV082OPCOES DE VENDA                                             BRABEV3S0577BRABEVACNOR1119080OPCOES VENDA   0850000ON        2018-07-16000000000265100000E000R$             SIM                           
02ABEVS21     ABEV082OPCOES DE VENDA                                             BRABEV3S0585BRABEVACNOR1119080OPCOES VENDA   0868000ON        2018-07-16000000000210100000E000R$             SIM                           
02ABEVS51     ABEV082OPCOES DE VENDA                                             BRABEV3S0593BRABEVACNOR1119080OPCOES VENDA   0876000ON        2018-07-16000000000215100000E000R$             SIM                           
02ABEVS22     ABEV082OPCOES DE VENDA                                             BRABEV3S05A1BRABEVACNOR1119080OPCOES VENDA   0884000ON        2018-07-16000000000220100000E000R$             SIM                           
02ABEVS27     ABEV082OPCOES DE VENDA                                             BRABEV3S05B9BRABEVACNOR1119080OPCOES VENDA   0892000ON        2018-07-16000000000270100000E000R$             SIM                           
02ABEVS57     ABEV082OPCOES DE VENDA                                             BRABEV3S05C7BRABEVACNOR1119080OPCOES VENDA   0906000ON        2018-07-16000000000275100000E000R$             SIM                           
02ABEVR242    ABEV082OPCOES DE VENDA                                             BRABEV3R0586BRABEVACNOR1119080OPCOES VENDA   0914000ON        2018-06-18000000000242600000E000R$             SIM                           
02ABEVS222    ABEV082OPCOES DE VENDA                                             BRABEV3S05D5BRABEVACNOR1119080OPCOES VENDA   0922000ON        2018-07-16000000000222600000E000R$             SIM                           
02ABEVR172    ABEV082OPCOES DE VENDA                                             BRABEV3R0594BRABEVACNOR1119080OPCOES VENDA   0930000ON        2018-06-18000000000172600000E000R$             SIM                           
02ABEVV195    ABEV082OPCOES DE VENDA                                             BRABEV3V04K7BRABEVACNOR1119080OPCOES VENDA   0949000ON        2018-10-15000000000195000000E000R$             SIM                           
02ABEVV230    ABEV082OPCOES DE VENDA                                             BRABEV3V04L5BRABEVACNOR1119080OPCOES VENDA   0957000ON        2018-10-15000000000230000000E000R$             SIM                           
02ABEVP215    ABEV082OPCOES DE VENDA                                             BRABEV3P05K6BRABEVACNOR1119080OPCOES VENDA   0965000ON        2019-04-15000000000215000000E000R$             SIM                           
02ABEVX252    ABEV082OPCOES DE VENDA                                             BRABEV3X06T9BRABEVACNOR1119080OPCOES VENDA   0973000ON        2018-12-17000000000252600000E000R$             SIM                           
02ABEVQ195    ABEV082OPCOES DE VENDA                                             BRABEV3Q04S0BRABEVACNOR1119080OPCOES VENDA   0981000ON        2019-05-20000000000195000000E000R$             SIM                           
02ABEVQ227    ABEV082OPCOES DE VENDA                                             BRABEV3Q04T8BRABEVACNOR1119080OPCOES VENDA   0990000ON        2019-05-20000000000227500000E000R$             SIM                           
02ABEVX175    ABEV082OPCOES DE VENDA                                             BRABEV3X06U7BRABEVACNOR1119080OPCOES VENDA   1007000ON        2018-12-17000000000175100000E000R$             SIM                           
02ABEVX95     ABEV082OPCOES DE VENDA                                             BRABEV3X06V5BRABEVACNOR1119080OPCOES VENDA   1015000ON        2018-12-17000000000195100000E000R$             SIM                           
02ABEVX222    ABEV082OPCOES DE VENDA                                             BRABEV3X06W3BRABEVACNOR1119080OPCOES VENDA   1023000ON        2018-12-17000000000222600000E000R$             SIM                           
02ABEVX167    ABEV082OPCOES DE VENDA                                             BRABEV3X06X1BRABEVACNOR1119080OPCOES VENDA   1031000ON        2018-12-17000000000167600000E000R$             SIM                           
02ABEVQ267    ABEV082OPCOES DE VENDA                                             BRABEV3Q04U6BRABEVACNOR1119080OPCOES VENDA   1040000ON        2018-05-21000000000267600000E000R$             SIM                           
02ABEVS242    ABEV082OPCOES DE VENDA                                             BRABEV3S05E3BRABEVACNOR1119080OPCOES VENDA   1058000ON        2018-07-16000000000242600000E000R$             SIM                           
02ABEVW231    ABEV082OPCOES DE VENDA                                             BRABEV3W0522BRABEVACNOR1119080OPCOES VENDA   1066000ON        2018-11-19000000000231700000E000R$             SIM                           
02ABEVW209    ABEV082OPCOES DE VENDA                                             BRABEV3W0530BRABEVACNOR1119080OPCOES VENDA   1074000ON        2018-11-19000000000209200000E000R$             SIM                           
02ABEVW219    ABEV082OPCOES DE VENDA                                             BRABEV3W0548BRABEVACNOR1119080OPCOES VENDA   1082000ON        2018-11-19000000000219200000E000R$             SIM                           
02ABTT34      ABTT002LOTE PADRAO                                                 BRABTTBDR007BRABTTBDR007126010VISTA          0000000DRN       9999-12-31000000000000000000 000R$             SIM                           
02ACNB34      ACNB002LOTE PADRAO                                                 BRACNBBDR006BRACNBBDR006106010VISTA          0000000DRN       9999-12-31000000000000000000 000R$             SIM                           
02ADHM3       ADHM002LOTE PADRAO                                                 BRADHMACNOR9BRADHMACNOR9101010VISTA          0000000ON        9999-12-31000000000000000000 000R$             SIM                           
02ADHM3S      ADHM062MERCADO A TERMO                                             BRADHMTSO000BRADHMACNOR9101030TERMO          0000000ON        9999-12-31000000000000000000 000R$             SIM                           
02ADHM3T      ADHM062MERCADO A TERMO                                             BRADHMTNO001BRADHMACNOR9101030TERMO          0000000ON        9999-12-31000000000000000000 000R$             SIM                           
02AEFI11      AEFI012FUNDOS IMOBILIARIOS                                         BRAEFICTF002BRAEFICTF002177010VISTA          0000000CI  ER    9999-12-31000000000000000000 000R$             SIM                           
02AELP3       AELP002LOTE PADRAO                                                 BRAELPACNOR2BRAELPACNOR2124010VISTA          0000000ON        9999-12-31000000000000000000 000R$             SIM                           
